{
  "contractName": "ImpactCoin",
  "abi": [
    {
      "inputs": [
        {
          "internalType": "uint256",
          "name": "_initialAmount",
          "type": "uint256"
        },
        {
          "internalType": "string",
          "name": "_tokenName",
          "type": "string"
        },
        {
          "internalType": "uint8",
          "name": "_decimalUnits",
          "type": "uint8"
        },
        {
          "internalType": "string",
          "name": "_tokenSymbol",
          "type": "string"
        }
      ],
      "stateMutability": "nonpayable",
      "type": "constructor"
    },
    {
      "anonymous": false,
      "inputs": [
        {
          "indexed": true,
          "internalType": "address",
          "name": "_owner",
          "type": "address"
        },
        {
          "indexed": true,
          "internalType": "address",
          "name": "_spender",
          "type": "address"
        },
        {
          "indexed": false,
          "internalType": "uint256",
          "name": "_value",
          "type": "uint256"
        }
      ],
      "name": "Approval",
      "type": "event"
    },
    {
      "anonymous": false,
      "inputs": [
        {
          "indexed": true,
          "internalType": "address",
          "name": "_from",
          "type": "address"
        },
        {
          "indexed": true,
          "internalType": "address",
          "name": "_to",
          "type": "address"
        },
        {
          "indexed": false,
          "internalType": "uint256",
          "name": "_value",
          "type": "uint256"
        }
      ],
      "name": "Transfer",
      "type": "event"
    },
    {
      "inputs": [
        {
          "internalType": "address",
          "name": "",
          "type": "address"
        },
        {
          "internalType": "address",
          "name": "",
          "type": "address"
        }
      ],
      "name": "allowed",
      "outputs": [
        {
          "internalType": "uint256",
          "name": "",
          "type": "uint256"
        }
      ],
      "stateMutability": "view",
      "type": "function"
    },
    {
      "inputs": [
        {
          "internalType": "address",
          "name": "",
          "type": "address"
        }
      ],
      "name": "balances",
      "outputs": [
        {
          "internalType": "uint256",
          "name": "",
          "type": "uint256"
        }
      ],
      "stateMutability": "view",
      "type": "function"
    },
    {
      "inputs": [],
      "name": "decimals",
      "outputs": [
        {
          "internalType": "uint8",
          "name": "",
          "type": "uint8"
        }
      ],
      "stateMutability": "view",
      "type": "function"
    },
    {
      "inputs": [],
      "name": "name",
      "outputs": [
        {
          "internalType": "string",
          "name": "",
          "type": "string"
        }
      ],
      "stateMutability": "view",
      "type": "function"
    },
    {
      "inputs": [
        {
          "internalType": "address",
          "name": "",
          "type": "address"
        }
      ],
      "name": "payout",
      "outputs": [
        {
          "internalType": "uint256",
          "name": "",
          "type": "uint256"
        }
      ],
      "stateMutability": "view",
      "type": "function"
    },
    {
      "inputs": [],
      "name": "symbol",
      "outputs": [
        {
          "internalType": "string",
          "name": "",
          "type": "string"
        }
      ],
      "stateMutability": "view",
      "type": "function"
    },
    {
      "inputs": [],
      "name": "totalSupply",
      "outputs": [
        {
          "internalType": "uint256",
          "name": "",
          "type": "uint256"
        }
      ],
      "stateMutability": "view",
      "type": "function"
    },
    {
      "inputs": [
        {
          "internalType": "address",
          "name": "_to",
          "type": "address"
        },
        {
          "internalType": "uint256",
          "name": "_value",
          "type": "uint256"
        }
      ],
      "name": "transferCoins",
      "outputs": [
        {
          "internalType": "bool",
          "name": "success",
          "type": "bool"
        }
      ],
      "stateMutability": "nonpayable",
      "type": "function"
    },
    {
      "inputs": [],
      "name": "getPayoutAmount",
      "outputs": [
        {
          "internalType": "uint256",
          "name": "amount",
          "type": "uint256"
        }
      ],
      "stateMutability": "view",
      "type": "function"
    },
    {
      "inputs": [
        {
          "internalType": "address",
          "name": "_from",
          "type": "address"
        },
        {
          "internalType": "address",
          "name": "_to",
          "type": "address"
        },
        {
          "internalType": "uint256",
          "name": "_value",
          "type": "uint256"
        }
      ],
      "name": "transferFrom",
      "outputs": [
        {
          "internalType": "bool",
          "name": "success",
          "type": "bool"
        }
      ],
      "stateMutability": "nonpayable",
      "type": "function"
    },
    {
      "inputs": [
        {
          "internalType": "address",
          "name": "_owner",
          "type": "address"
        }
      ],
      "name": "balanceOf",
      "outputs": [
        {
          "internalType": "uint256",
          "name": "balance",
          "type": "uint256"
        }
      ],
      "stateMutability": "view",
      "type": "function"
    },
    {
      "inputs": [
        {
          "internalType": "address",
          "name": "_spender",
          "type": "address"
        },
        {
          "internalType": "uint256",
          "name": "_value",
          "type": "uint256"
        }
      ],
      "name": "approve",
      "outputs": [
        {
          "internalType": "bool",
          "name": "success",
          "type": "bool"
        }
      ],
      "stateMutability": "nonpayable",
      "type": "function"
    },
    {
      "inputs": [
        {
          "internalType": "address",
          "name": "_owner",
          "type": "address"
        },
        {
          "internalType": "address",
          "name": "_spender",
          "type": "address"
        }
      ],
      "name": "allowance",
      "outputs": [
        {
          "internalType": "uint256",
          "name": "remaining",
          "type": "uint256"
        }
      ],
      "stateMutability": "view",
      "type": "function"
    },
    {
      "inputs": [],
      "name": "get_CoinOwner_Address",
      "outputs": [
        {
          "internalType": "address",
          "name": "coinOwner",
          "type": "address"
        }
      ],
      "stateMutability": "view",
      "type": "function"
    },
    {
      "inputs": [
        {
          "internalType": "address",
          "name": "addr",
          "type": "address"
        }
      ],
      "name": "getBalance",
      "outputs": [
        {
          "internalType": "uint256",
          "name": "",
          "type": "uint256"
        }
      ],
      "stateMutability": "view",
      "type": "function"
    }
  ],
  "bytecode": "0x608060405260056008553480156200001657600080fd5b50604051620018ee380380620018ee83398181016040528101906200003c91906200031c565b836000803373ffffffffffffffffffffffffffffffffffffffff1673ffffffffffffffffffffffffffffffffffffffff1681526020019081526020016000208190555030600760006101000a81548173ffffffffffffffffffffffffffffffffffffffff021916908373ffffffffffffffffffffffffffffffffffffffff160217905550836003819055508260049081620000d891906200060d565b5081600560006101000a81548160ff021916908360ff16021790555080600690816200010591906200060d565b5050505050620006f4565b6000604051905090565b600080fd5b600080fd5b6000819050919050565b620001398162000124565b81146200014557600080fd5b50565b60008151905062000159816200012e565b92915050565b600080fd5b600080fd5b6000601f19601f8301169050919050565b7f4e487b7100000000000000000000000000000000000000000000000000000000600052604160045260246000fd5b620001b48262000169565b810181811067ffffffffffffffff82111715620001d657620001d56200017a565b5b80604052505050565b6000620001eb62000110565b9050620001f98282620001a9565b919050565b600067ffffffffffffffff8211156200021c576200021b6200017a565b5b620002278262000169565b9050602081019050919050565b60005b838110156200025457808201518184015260208101905062000237565b60008484015250505050565b6000620002776200027184620001fe565b620001df565b90508281526020810184848401111562000296576200029562000164565b5b620002a384828562000234565b509392505050565b600082601f830112620002c357620002c26200015f565b5b8151620002d584826020860162000260565b91505092915050565b600060ff82169050919050565b620002f681620002de565b81146200030257600080fd5b50565b6000815190506200031681620002eb565b92915050565b600080600080608085870312156200033957620003386200011a565b5b6000620003498782880162000148565b945050602085015167ffffffffffffffff8111156200036d576200036c6200011f565b5b6200037b87828801620002ab565b93505060406200038e8782880162000305565b925050606085015167ffffffffffffffff811115620003b257620003b16200011f565b5b620003c087828801620002ab565b91505092959194509250565b600081519050919050565b7f4e487b7100000000000000000000000000000000000000000000000000000000600052602260045260246000fd5b600060028204905060018216806200041f57607f821691505b602082108103620004355762000434620003d7565b5b50919050565b60008190508160005260206000209050919050565b60006020601f8301049050919050565b600082821b905092915050565b6000600883026200049f7fffffffffffffffffffffffffffffffffffffffffffffffffffffffffffffffff8262000460565b620004ab868362000460565b95508019841693508086168417925050509392505050565b6000819050919050565b6000620004ee620004e8620004e28462000124565b620004c3565b62000124565b9050919050565b6000819050919050565b6200050a83620004cd565b620005226200051982620004f5565b8484546200046d565b825550505050565b600090565b620005396200052a565b62000546818484620004ff565b505050565b5b818110156200056e57620005626000826200052f565b6001810190506200054c565b5050565b601f821115620005bd5762000587816200043b565b620005928462000450565b81016020851015620005a2578190505b620005ba620005b18562000450565b8301826200054b565b50505b505050565b600082821c905092915050565b6000620005e260001984600802620005c2565b1980831691505092915050565b6000620005fd8383620005cf565b9150826002028217905092915050565b6200061882620003cc565b67ffffffffffffffff8111156200063457620006336200017a565b5b62000640825462000406565b6200064d82828562000572565b600060209050601f83116001811462000685576000841562000670578287015190505b6200067c8582620005ef565b865550620006ec565b601f19841662000695866200043b565b60005b82811015620006bf5784890151825560018201915060208501945060208101905062000698565b86831015620006df5784890151620006db601f891682620005cf565b8355505b6001600288020188555050505b505050505050565b6111ea80620007046000396000f3fe608060405234801561001057600080fd5b50600436106100f55760003560e01c8063313ce5671161009757806387e95fc91161006657806387e95fc9146102c257806395d89b41146102e0578063dd62ed3e146102fe578063f8b2cb4f1461032e576100f5565b8063313ce56714610226578063465d2ec7146102445780635c6581651461026257806370a0823114610292576100f5565b806318160ddd116100d357806318160ddd1461017857806323b872dd1461019657806327e235e3146101c65780632dba5cfa146101f6576100f5565b806306fdde03146100fa578063095ea7b3146101185780630b7e9c4414610148575b600080fd5b61010261035e565b60405161010f9190610d1d565b60405180910390f35b610132600480360381019061012d9190610dd8565b6103ec565b60405161013f9190610e33565b60405180910390f35b610162600480360381019061015d9190610e4e565b6104de565b60405161016f9190610e8a565b60405180910390f35b6101806104f6565b60405161018d9190610e8a565b60405180910390f35b6101b060048036038101906101ab9190610ea5565b6104fc565b6040516101bd9190610e33565b60405180910390f35b6101e060048036038101906101db9190610e4e565b6107e2565b6040516101ed9190610e8a565b60405180910390f35b610210600480360381019061020b9190610dd8565b6107fa565b60405161021d9190610e33565b60405180910390f35b61022e610a3f565b60405161023b9190610f14565b60405180910390f35b61024c610a52565b6040516102599190610e8a565b60405180910390f35b61027c60048036038101906102779190610f2f565b610a99565b6040516102899190610e8a565b60405180910390f35b6102ac60048036038101906102a79190610e4e565b610abe565b6040516102b99190610e8a565b60405180910390f35b6102ca610b06565b6040516102d79190610f7e565b60405180910390f35b6102e8610b30565b6040516102f59190610d1d565b60405180910390f35b61031860048036038101906103139190610f2f565b610bbe565b6040516103259190610e8a565b60405180910390f35b61034860048036038101906103439190610e4e565b610c45565b6040516103559190610e8a565b60405180910390f35b6004805461036b90610fc8565b80601f016020809104026020016040519081016040528092919081815260200182805461039790610fc8565b80156103e45780601f106103b9576101008083540402835291602001916103e4565b820191906000526020600020905b8154815290600101906020018083116103c757829003601f168201915b505050505081565b600081600260003373ffffffffffffffffffffffffffffffffffffffff1673ffffffffffffffffffffffffffffffffffffffff16815260200190815260200160002060008573ffffffffffffffffffffffffffffffffffffffff1673ffffffffffffffffffffffffffffffffffffffff168152602001908152602001600020819055508273ffffffffffffffffffffffffffffffffffffffff163373ffffffffffffffffffffffffffffffffffffffff167f8c5be1e5ebec7d5bd14f71427d1e84f3dd0314c0f7b2291e5b200ac8c7c3b925846040516104cc9190610e8a565b60405180910390a36001905092915050565b60016020528060005260406000206000915090505481565b60035481565b600080600260008673ffffffffffffffffffffffffffffffffffffffff1673ffffffffffffffffffffffffffffffffffffffff16815260200190815260200160002060003373ffffffffffffffffffffffffffffffffffffffff1673ffffffffffffffffffffffffffffffffffffffff168152602001908152602001600020549050826000808773ffffffffffffffffffffffffffffffffffffffff1673ffffffffffffffffffffffffffffffffffffffff16815260200190815260200160002054101580156105cc5750828110155b61060b576040517f08c379a00000000000000000000000000000000000000000000000000000000081526004016106029061106b565b60405180910390fd5b826000808673ffffffffffffffffffffffffffffffffffffffff1673ffffffffffffffffffffffffffffffffffffffff168152602001908152602001600020600082825461065991906110ba565b92505081905550826000808773ffffffffffffffffffffffffffffffffffffffff1673ffffffffffffffffffffffffffffffffffffffff16815260200190815260200160002060008282546106ae91906110ee565b925050819055507fffffffffffffffffffffffffffffffffffffffffffffffffffffffffffffffff8110156107715782600260008773ffffffffffffffffffffffffffffffffffffffff1673ffffffffffffffffffffffffffffffffffffffff16815260200190815260200160002060003373ffffffffffffffffffffffffffffffffffffffff1673ffffffffffffffffffffffffffffffffffffffff168152602001908152602001600020600082825461076991906110ee565b925050819055505b8373ffffffffffffffffffffffffffffffffffffffff168573ffffffffffffffffffffffffffffffffffffffff167fddf252ad1be2c89b69c2b068fc378daa952ba7f163c4a11628f55a4df523b3ef856040516107ce9190610e8a565b60405180910390a360019150509392505050565b60006020528060005260406000206000915090505481565b6000600854600160008573ffffffffffffffffffffffffffffffffffffffff1673ffffffffffffffffffffffffffffffffffffffff168152602001908152602001600020541015610a3457816000803373ffffffffffffffffffffffffffffffffffffffff1673ffffffffffffffffffffffffffffffffffffffff1681526020019081526020016000205410156108c6576040517f08c379a00000000000000000000000000000000000000000000000000000000081526004016108bd90611194565b60405180910390fd5b816000803373ffffffffffffffffffffffffffffffffffffffff1673ffffffffffffffffffffffffffffffffffffffff168152602001908152602001600020600082825461091491906110ee565b92505081905550816000808573ffffffffffffffffffffffffffffffffffffffff1673ffffffffffffffffffffffffffffffffffffffff168152602001908152602001600020600082825461096991906110ba565b925050819055508273ffffffffffffffffffffffffffffffffffffffff163373ffffffffffffffffffffffffffffffffffffffff167fddf252ad1be2c89b69c2b068fc378daa952ba7f163c4a11628f55a4df523b3ef846040516109cd9190610e8a565b60405180910390a360018060008573ffffffffffffffffffffffffffffffffffffffff1673ffffffffffffffffffffffffffffffffffffffff1681526020019081526020016000206000828254610a2491906110ba565b9250508190555060019050610a39565b600090505b92915050565b600560009054906101000a900460ff1681565b6000600160003373ffffffffffffffffffffffffffffffffffffffff1673ffffffffffffffffffffffffffffffffffffffff16815260200190815260200160002054905090565b6002602052816000526040600020602052806000526040600020600091509150505481565b60008060008373ffffffffffffffffffffffffffffffffffffffff1673ffffffffffffffffffffffffffffffffffffffff168152602001908152602001600020549050919050565b6000600760009054906101000a900473ffffffffffffffffffffffffffffffffffffffff16905090565b60068054610b3d90610fc8565b80601f0160208091040260200160405190810160405280929190818152602001828054610b6990610fc8565b8015610bb65780601f10610b8b57610100808354040283529160200191610bb6565b820191906000526020600020905b815481529060010190602001808311610b9957829003601f168201915b505050505081565b6000600260008473ffffffffffffffffffffffffffffffffffffffff1673ffffffffffffffffffffffffffffffffffffffff16815260200190815260200160002060008373ffffffffffffffffffffffffffffffffffffffff1673ffffffffffffffffffffffffffffffffffffffff16815260200190815260200160002054905092915050565b60008060008373ffffffffffffffffffffffffffffffffffffffff1673ffffffffffffffffffffffffffffffffffffffff168152602001908152602001600020549050919050565b600081519050919050565b600082825260208201905092915050565b60005b83811015610cc7578082015181840152602081019050610cac565b60008484015250505050565b6000601f19601f8301169050919050565b6000610cef82610c8d565b610cf98185610c98565b9350610d09818560208601610ca9565b610d1281610cd3565b840191505092915050565b60006020820190508181036000830152610d378184610ce4565b905092915050565b600080fd5b600073ffffffffffffffffffffffffffffffffffffffff82169050919050565b6000610d6f82610d44565b9050919050565b610d7f81610d64565b8114610d8a57600080fd5b50565b600081359050610d9c81610d76565b92915050565b6000819050919050565b610db581610da2565b8114610dc057600080fd5b50565b600081359050610dd281610dac565b92915050565b60008060408385031215610def57610dee610d3f565b5b6000610dfd85828601610d8d565b9250506020610e0e85828601610dc3565b9150509250929050565b60008115159050919050565b610e2d81610e18565b82525050565b6000602082019050610e486000830184610e24565b92915050565b600060208284031215610e6457610e63610d3f565b5b6000610e7284828501610d8d565b91505092915050565b610e8481610da2565b82525050565b6000602082019050610e9f6000830184610e7b565b92915050565b600080600060608486031215610ebe57610ebd610d3f565b5b6000610ecc86828701610d8d565b9350506020610edd86828701610d8d565b9250506040610eee86828701610dc3565b9150509250925092565b600060ff82169050919050565b610f0e81610ef8565b82525050565b6000602082019050610f296000830184610f05565b92915050565b60008060408385031215610f4657610f45610d3f565b5b6000610f5485828601610d8d565b9250506020610f6585828601610d8d565b9150509250929050565b610f7881610d64565b82525050565b6000602082019050610f936000830184610f6f565b92915050565b7f4e487b7100000000000000000000000000000000000000000000000000000000600052602260045260246000fd5b60006002820490506001821680610fe057607f821691505b602082108103610ff357610ff2610f99565b5b50919050565b7f746f6b656e2062616c616e6365206f7220616c6c6f77616e6365206973206c6f60008201527f776572207468616e20616d6f756e742072657175657374656400000000000000602082015250565b6000611055603983610c98565b915061106082610ff9565b604082019050919050565b6000602082019050818103600083015261108481611048565b9050919050565b7f4e487b7100000000000000000000000000000000000000000000000000000000600052601160045260246000fd5b60006110c582610da2565b91506110d083610da2565b92508282019050808211156110e8576110e761108b565b5b92915050565b60006110f982610da2565b915061110483610da2565b925082820390508181111561111c5761111b61108b565b5b92915050565b7f746f6b656e2062616c616e6365206973206c6f776572207468616e207468652060008201527f76616c7565207265717565737465640000000000000000000000000000000000602082015250565b600061117e602f83610c98565b915061118982611122565b604082019050919050565b600060208201905081810360008301526111ad81611171565b905091905056fea26469706673582212207a00a47772ee8c8c04491f4dc60379a0482fe74a09a539dfdd846e7bff94579b64736f6c63430008130033",
  "immutableReferences": {},
  "source": "\n//contract ImpactCoin is // https://eips.ethereum.org/EIPS/eip-20;\n// SPDX-License-Identifier: MIT\npragma solidity >=0.5.0 <= 0.8.19;\n\ninterface Token {\n\n  /// @param _owner The address from which the balance will be retrieved\n  /// @return balance the balance\n  function balanceOf(address _owner) external view returns (uint256 balance);\n\n  /// @notice send `_value` token to `_to` from `msg.sender`\n  /// @param _to The address of the recipient\n  /// @param _value The amount of token to be transferred\n  /// @return success Whether the transfer was successful or not\n  function transferCoins(address _to, uint256 _value)  external returns (bool success);\n\n  /// @notice send `_value` token to `_to` from `_from` on the condition it is approved by `_from`\n  /// @param _from The address of the sender\n  /// @param _to The address of the recipient\n  /// @param _value The amount of token to be transferred\n  /// @return success Whether the transfer was successful or not\n  function transferFrom(address _from, address _to, uint256 _value) external returns (bool success);\n\n  /// @notice `msg.sender` approves `_addr` to spend `_value` tokens\n  /// @param _spender The address of the account able to transfer the tokens\n  /// @param _value The amount of wei to be approved for transfer\n  /// @return success Whether the approval was successful or not\n  function approve(address _spender  , uint256 _value) external returns (bool success);\n\n  /// @param _owner The address of the account owning tokens\n  /// @param _spender The address of the account able to transfer the tokens\n  /// @return remaining Amount of remaining tokens allowed to spent\n  function allowance(address _owner, address _spender) external view returns (uint256 remaining);\n\n  event Transfer(address indexed _from, address indexed _to, uint256 _value);\n  event Approval(address indexed _owner, address indexed _spender, uint256 _value);\n}\n\ncontract ImpactCoin is Token {\n  uint256 constant private MAX_UINT256 = 2**256 - 1;\n  mapping (address => uint256) public balances;\n  mapping (address => uint256) public payout;\n  mapping (address => mapping (address => uint256)) public allowed;\n  uint256 public totalSupply;\n\n  string public name;                   //fancy name: eg Simon Bucks\n  uint8 public decimals;                //How many decimals to show.\n  string public symbol;\n  address initialCoinOwner;             //An identifier: eg SBX\n  uint payout_per_Week = 5;\n\n  constructor(uint256 _initialAmount, string memory _tokenName, uint8 _decimalUnits, string  memory _tokenSymbol) {\n    balances[msg.sender] = _initialAmount;\n    initialCoinOwner = address(this);           // Give the creator all initial tokens\n    totalSupply = _initialAmount;                        // Update total supply\n    name = _tokenName;                                   // Set the name for display purposes\n    decimals = _decimalUnits;                            // Amount of decimals for display purposes\n    symbol = _tokenSymbol;                               // Set the symbol for display purposes\n  }\n\n  function transferCoins(address _to, uint256 _value) public override returns (bool success) {\n    //transfers only coins, if the receiver got less than five times coins\n    if (payout[_to] < payout_per_Week){\n      require(balances[msg.sender] >= _value, \"token balance is lower than the value requested\");\n      balances[msg.sender] -= _value;\n      balances[_to] += _value;\n      emit Transfer(msg.sender, _to, _value); //solhint-disable-line indent, no-unused-vars\n      payout[_to] += 1;\n      return true;\n    }else return false;\n  }\n\n  function getPayoutAmount() public view returns (uint amount){\n    return payout[msg.sender];\n  }\n\n  function transferFrom(address _from, address _to, uint256 _value) public override returns (bool success) {\n    uint256 allowance = allowed[_from][msg.sender];\n    require(balances[_from] >= _value && allowance >= _value, \"token balance or allowance is lower than amount requested\");\n    balances[_to] += _value;\n    balances[_from] -= _value;\n    if (allowance < MAX_UINT256) {\n      allowed[_from][msg.sender] -= _value;\n    }\n    emit Transfer(_from, _to, _value); //solhint-disable-line indent, no-unused-vars\n    return true;\n  }\n\n  function balanceOf(address _owner) public override view returns (uint256 balance) {\n    return balances[_owner];\n  }\n\n  function approve(address _spender, uint256 _value) public override returns (bool success) {\n    allowed[msg.sender][_spender] = _value;\n    emit Approval(msg.sender, _spender, _value); //solhint-disable-line indent, no-unused-vars\n    return true;\n  }\n\n  function allowance(address _owner, address _spender) public override view returns (uint256 remaining) {\n    return allowed[_owner][_spender];\n  }\n\n  function get_CoinOwner_Address() public view returns(address coinOwner){\n    return initialCoinOwner;\n  }\n\n  function getBalance(address addr) public view returns(uint) {\n    return balances[addr];\n  }\n\n}",
  "sourcePath": "/Users/jonashasslauer/WebstormProjects/impact_coin/contracts/ImpactCoin.sol",
  "compiler": {
    "name": "solc",
    "version": "0.8.19+commit.7dd6d404.Emscripten.clang"
  },
  "schemaVersion": "3.4.16",
  "updatedAt": "2024-02-04T22:08:18.714Z",
  "devdoc": {
    "kind": "dev",
    "methods": {
      "allowance(address,address)": {
        "params": {
          "_owner": "The address of the account owning tokens",
          "_spender": "The address of the account able to transfer the tokens"
        },
        "returns": {
          "remaining": "Amount of remaining tokens allowed to spent"
        }
      },
      "approve(address,uint256)": {
        "params": {
          "_spender": "The address of the account able to transfer the tokens",
          "_value": "The amount of wei to be approved for transfer"
        },
        "returns": {
          "success": "Whether the approval was successful or not"
        }
      },
      "balanceOf(address)": {
        "params": {
          "_owner": "The address from which the balance will be retrieved"
        },
        "returns": {
          "balance": "the balance"
        }
      },
      "transferCoins(address,uint256)": {
        "params": {
          "_to": "The address of the recipient",
          "_value": "The amount of token to be transferred"
        },
        "returns": {
          "success": "Whether the transfer was successful or not"
        }
      },
      "transferFrom(address,address,uint256)": {
        "params": {
          "_from": "The address of the sender",
          "_to": "The address of the recipient",
          "_value": "The amount of token to be transferred"
        },
        "returns": {
          "success": "Whether the transfer was successful or not"
        }
      }
    },
    "version": 1
  },
  "userdoc": {
    "kind": "user",
    "methods": {
      "approve(address,uint256)": {
        "notice": "`msg.sender` approves `_addr` to spend `_value` tokens"
      },
      "transferCoins(address,uint256)": {
        "notice": "send `_value` token to `_to` from `msg.sender`"
      },
      "transferFrom(address,address,uint256)": {
        "notice": "send `_value` token to `_to` from `_from` on the condition it is approved by `_from`"
      }
    },
    "version": 1
  }
}