{
  "contractName": "ImpactCoin",
  "abi": [
    {
      "inputs": [
        {
          "internalType": "uint256",
          "name": "_initialAmount",
          "type": "uint256"
        },
        {
          "internalType": "string",
          "name": "_tokenName",
          "type": "string"
        },
        {
          "internalType": "uint8",
          "name": "_decimalUnits",
          "type": "uint8"
        },
        {
          "internalType": "string",
          "name": "_tokenSymbol",
          "type": "string"
        }
      ],
      "stateMutability": "nonpayable",
      "type": "constructor"
    },
    {
      "anonymous": false,
      "inputs": [
        {
          "indexed": true,
          "internalType": "address",
          "name": "_owner",
          "type": "address"
        },
        {
          "indexed": true,
          "internalType": "address",
          "name": "_spender",
          "type": "address"
        },
        {
          "indexed": false,
          "internalType": "uint256",
          "name": "_value",
          "type": "uint256"
        }
      ],
      "name": "Approval",
      "type": "event"
    },
    {
      "anonymous": false,
      "inputs": [
        {
          "indexed": true,
          "internalType": "address",
          "name": "_from",
          "type": "address"
        },
        {
          "indexed": true,
          "internalType": "address",
          "name": "_to",
          "type": "address"
        },
        {
          "indexed": false,
          "internalType": "uint256",
          "name": "_value",
          "type": "uint256"
        }
      ],
      "name": "Transfer",
      "type": "event"
    },
    {
      "anonymous": false,
      "inputs": [
        {
          "indexed": false,
          "internalType": "address",
          "name": "currentAddress",
          "type": "address"
        },
        {
          "indexed": false,
          "internalType": "string",
          "name": "message",
          "type": "string"
        }
      ],
      "name": "successfull",
      "type": "event"
    },
    {
      "inputs": [
        {
          "internalType": "address",
          "name": "",
          "type": "address"
        },
        {
          "internalType": "address",
          "name": "",
          "type": "address"
        }
      ],
      "name": "allowed",
      "outputs": [
        {
          "internalType": "uint256",
          "name": "",
          "type": "uint256"
        }
      ],
      "stateMutability": "view",
      "type": "function",
      "constant": true
    },
    {
      "inputs": [
        {
          "internalType": "address",
          "name": "",
          "type": "address"
        }
      ],
      "name": "balances",
      "outputs": [
        {
          "internalType": "uint256",
          "name": "",
          "type": "uint256"
        }
      ],
      "stateMutability": "view",
      "type": "function",
      "constant": true
    },
    {
      "inputs": [],
      "name": "decimals",
      "outputs": [
        {
          "internalType": "uint8",
          "name": "",
          "type": "uint8"
        }
      ],
      "stateMutability": "view",
      "type": "function",
      "constant": true
    },
    {
      "inputs": [],
      "name": "name",
      "outputs": [
        {
          "internalType": "string",
          "name": "",
          "type": "string"
        }
      ],
      "stateMutability": "view",
      "type": "function",
      "constant": true
    },
    {
      "inputs": [],
      "name": "symbol",
      "outputs": [
        {
          "internalType": "string",
          "name": "",
          "type": "string"
        }
      ],
      "stateMutability": "view",
      "type": "function",
      "constant": true
    },
    {
      "inputs": [],
      "name": "totalSupply",
      "outputs": [
        {
          "internalType": "uint256",
          "name": "",
          "type": "uint256"
        }
      ],
      "stateMutability": "view",
      "type": "function",
      "constant": true
    },
    {
      "inputs": [
        {
          "internalType": "address",
          "name": "_to",
          "type": "address"
        },
        {
          "internalType": "uint256",
          "name": "_value",
          "type": "uint256"
        }
      ],
      "name": "transfer",
      "outputs": [
        {
          "internalType": "bool",
          "name": "success",
          "type": "bool"
        }
      ],
      "stateMutability": "nonpayable",
      "type": "function"
    },
    {
      "inputs": [
        {
          "internalType": "address",
          "name": "_from",
          "type": "address"
        },
        {
          "internalType": "address",
          "name": "_to",
          "type": "address"
        },
        {
          "internalType": "uint256",
          "name": "_value",
          "type": "uint256"
        }
      ],
      "name": "transferFrom",
      "outputs": [
        {
          "internalType": "bool",
          "name": "success",
          "type": "bool"
        }
      ],
      "stateMutability": "nonpayable",
      "type": "function"
    },
    {
      "inputs": [
        {
          "internalType": "address",
          "name": "_owner",
          "type": "address"
        }
      ],
      "name": "balanceOf",
      "outputs": [
        {
          "internalType": "uint256",
          "name": "balance",
          "type": "uint256"
        }
      ],
      "stateMutability": "view",
      "type": "function",
      "constant": true
    },
    {
      "inputs": [
        {
          "internalType": "address",
          "name": "_spender",
          "type": "address"
        },
        {
          "internalType": "uint256",
          "name": "_value",
          "type": "uint256"
        }
      ],
      "name": "approve",
      "outputs": [
        {
          "internalType": "bool",
          "name": "success",
          "type": "bool"
        }
      ],
      "stateMutability": "nonpayable",
      "type": "function"
    },
    {
      "inputs": [
        {
          "internalType": "address",
          "name": "_owner",
          "type": "address"
        },
        {
          "internalType": "address",
          "name": "_spender",
          "type": "address"
        }
      ],
      "name": "allowance",
      "outputs": [
        {
          "internalType": "uint256",
          "name": "remaining",
          "type": "uint256"
        }
      ],
      "stateMutability": "view",
      "type": "function",
      "constant": true
    },
    {
      "inputs": [
        {
          "internalType": "string",
          "name": "action_",
          "type": "string"
        }
      ],
      "name": "set_action",
      "outputs": [],
      "stateMutability": "nonpayable",
      "type": "function"
    },
    {
      "inputs": [],
      "name": "get_current_sender_adress",
      "outputs": [
        {
          "internalType": "address",
          "name": "",
          "type": "address"
        }
      ],
      "stateMutability": "view",
      "type": "function",
      "constant": true
    },
    {
      "inputs": [
        {
          "internalType": "address",
          "name": "_to",
          "type": "address"
        },
        {
          "internalType": "uint256",
          "name": "_value",
          "type": "uint256"
        }
      ],
      "name": "transfer_ImpactCoin",
      "outputs": [
        {
          "internalType": "bool",
          "name": "",
          "type": "bool"
        }
      ],
      "stateMutability": "nonpayable",
      "type": "function"
    },
    {
      "inputs": [],
      "name": "get_CoinOwner_Adress",
      "outputs": [
        {
          "internalType": "address",
          "name": "",
          "type": "address"
        }
      ],
      "stateMutability": "view",
      "type": "function",
      "constant": true
    }
  ],
  "bytecode": "0x608060405230600760006101000a81548173ffffffffffffffffffffffffffffffffffffffff021916908373ffffffffffffffffffffffffffffffffffffffff1602179055503480156200005257600080fd5b5060405162001e8b38038062001e8b833981810160405281019062000078919062000358565b836000803373ffffffffffffffffffffffffffffffffffffffff1673ffffffffffffffffffffffffffffffffffffffff1681526020019081526020016000208190555033600660006101000a81548173ffffffffffffffffffffffffffffffffffffffff021916908373ffffffffffffffffffffffffffffffffffffffff16021790555083600281905550826003908162000114919062000649565b5081600460006101000a81548160ff021916908360ff160217905550806005908162000141919062000649565b505050505062000730565b6000604051905090565b600080fd5b600080fd5b6000819050919050565b620001758162000160565b81146200018157600080fd5b50565b60008151905062000195816200016a565b92915050565b600080fd5b600080fd5b6000601f19601f8301169050919050565b7f4e487b7100000000000000000000000000000000000000000000000000000000600052604160045260246000fd5b620001f082620001a5565b810181811067ffffffffffffffff82111715620002125762000211620001b6565b5b80604052505050565b6000620002276200014c565b9050620002358282620001e5565b919050565b600067ffffffffffffffff821115620002585762000257620001b6565b5b6200026382620001a5565b9050602081019050919050565b60005b838110156200029057808201518184015260208101905062000273565b60008484015250505050565b6000620002b3620002ad846200023a565b6200021b565b905082815260208101848484011115620002d257620002d1620001a0565b5b620002df84828562000270565b509392505050565b600082601f830112620002ff57620002fe6200019b565b5b8151620003118482602086016200029c565b91505092915050565b600060ff82169050919050565b62000332816200031a565b81146200033e57600080fd5b50565b600081519050620003528162000327565b92915050565b6000806000806080858703121562000375576200037462000156565b5b6000620003858782880162000184565b945050602085015167ffffffffffffffff811115620003a957620003a86200015b565b5b620003b787828801620002e7565b9350506040620003ca8782880162000341565b925050606085015167ffffffffffffffff811115620003ee57620003ed6200015b565b5b620003fc87828801620002e7565b91505092959194509250565b600081519050919050565b7f4e487b7100000000000000000000000000000000000000000000000000000000600052602260045260246000fd5b600060028204905060018216806200045b57607f821691505b60208210810362000471576200047062000413565b5b50919050565b60008190508160005260206000209050919050565b60006020601f8301049050919050565b600082821b905092915050565b600060088302620004db7fffffffffffffffffffffffffffffffffffffffffffffffffffffffffffffffff826200049c565b620004e786836200049c565b95508019841693508086168417925050509392505050565b6000819050919050565b60006200052a620005246200051e8462000160565b620004ff565b62000160565b9050919050565b6000819050919050565b620005468362000509565b6200055e620005558262000531565b848454620004a9565b825550505050565b600090565b6200057562000566565b620005828184846200053b565b505050565b5b81811015620005aa576200059e6000826200056b565b60018101905062000588565b5050565b601f821115620005f957620005c38162000477565b620005ce846200048c565b81016020851015620005de578190505b620005f6620005ed856200048c565b83018262000587565b50505b505050565b600082821c905092915050565b60006200061e60001984600802620005fe565b1980831691505092915050565b60006200063983836200060b565b9150826002028217905092915050565b620006548262000408565b67ffffffffffffffff81111562000670576200066f620001b6565b5b6200067c825462000442565b62000689828285620005ae565b600060209050601f831160018114620006c15760008415620006ac578287015190505b620006b885826200062b565b86555062000728565b601f198416620006d18662000477565b60005b82811015620006fb57848901518255600182019150602085019450602081019050620006d4565b868310156200071b578489015162000717601f8916826200060b565b8355505b6001600288020188555050505b505050505050565b61174b80620007406000396000f3fe608060405234801561001057600080fd5b50600436106100f55760003560e01c80635c658165116100975780639b42420f116100665780639b42420f1461029e578063a9059cbb146102ce578063abe7caa6146102fe578063dd62ed3e1461031a576100f5565b80635c6581651461020257806364404a181461023257806370a082311461025057806395d89b4114610280576100f5565b80631d7d5521116100d35780631d7d55211461016657806323b872dd1461018457806327e235e3146101b4578063313ce567146101e4576100f5565b806306fdde03146100fa578063095ea7b31461011857806318160ddd14610148575b600080fd5b61010261034a565b60405161010f9190610df9565b60405180910390f35b610132600480360381019061012d9190610ec3565b6103d8565b60405161013f9190610f1e565b60405180910390f35b6101506104ca565b60405161015d9190610f48565b60405180910390f35b61016e6104d0565b60405161017b9190610f72565b60405180910390f35b61019e60048036038101906101999190610f8d565b6104fa565b6040516101ab9190610f1e565b60405180910390f35b6101ce60048036038101906101c99190610fe0565b6107e0565b6040516101db9190610f48565b60405180910390f35b6101ec6107f8565b6040516101f99190611029565b60405180910390f35b61021c60048036038101906102179190611044565b61080b565b6040516102299190610f48565b60405180910390f35b61023a610830565b6040516102479190610f72565b60405180910390f35b61026a60048036038101906102659190610fe0565b610838565b6040516102779190610f48565b60405180910390f35b610288610880565b6040516102959190610df9565b60405180910390f35b6102b860048036038101906102b39190610ec3565b61090e565b6040516102c59190610f1e565b60405180910390f35b6102e860048036038101906102e39190610ec3565b610ada565b6040516102f59190610f1e565b60405180910390f35b610318600480360381019061031391906111b9565b610c76565b005b610334600480360381019061032f9190611044565b610ce2565b6040516103419190610f48565b60405180910390f35b6003805461035790611231565b80601f016020809104026020016040519081016040528092919081815260200182805461038390611231565b80156103d05780601f106103a5576101008083540402835291602001916103d0565b820191906000526020600020905b8154815290600101906020018083116103b357829003601f168201915b505050505081565b600081600160003373ffffffffffffffffffffffffffffffffffffffff1673ffffffffffffffffffffffffffffffffffffffff16815260200190815260200160002060008573ffffffffffffffffffffffffffffffffffffffff1673ffffffffffffffffffffffffffffffffffffffff168152602001908152602001600020819055508273ffffffffffffffffffffffffffffffffffffffff163373ffffffffffffffffffffffffffffffffffffffff167f8c5be1e5ebec7d5bd14f71427d1e84f3dd0314c0f7b2291e5b200ac8c7c3b925846040516104b89190610f48565b60405180910390a36001905092915050565b60025481565b6000600660009054906101000a900473ffffffffffffffffffffffffffffffffffffffff16905090565b600080600160008673ffffffffffffffffffffffffffffffffffffffff1673ffffffffffffffffffffffffffffffffffffffff16815260200190815260200160002060003373ffffffffffffffffffffffffffffffffffffffff1673ffffffffffffffffffffffffffffffffffffffff168152602001908152602001600020549050826000808773ffffffffffffffffffffffffffffffffffffffff1673ffffffffffffffffffffffffffffffffffffffff16815260200190815260200160002054101580156105ca5750828110155b610609576040517f08c379a0000000000000000000000000000000000000000000000000000000008152600401610600906112d4565b60405180910390fd5b826000808673ffffffffffffffffffffffffffffffffffffffff1673ffffffffffffffffffffffffffffffffffffffff16815260200190815260200160002060008282546106579190611323565b92505081905550826000808773ffffffffffffffffffffffffffffffffffffffff1673ffffffffffffffffffffffffffffffffffffffff16815260200190815260200160002060008282546106ac9190611357565b925050819055507fffffffffffffffffffffffffffffffffffffffffffffffffffffffffffffffff81101561076f5782600160008773ffffffffffffffffffffffffffffffffffffffff1673ffffffffffffffffffffffffffffffffffffffff16815260200190815260200160002060003373ffffffffffffffffffffffffffffffffffffffff1673ffffffffffffffffffffffffffffffffffffffff16815260200190815260200160002060008282546107679190611357565b925050819055505b8373ffffffffffffffffffffffffffffffffffffffff168573ffffffffffffffffffffffffffffffffffffffff167fddf252ad1be2c89b69c2b068fc378daa952ba7f163c4a11628f55a4df523b3ef856040516107cc9190610f48565b60405180910390a360019150509392505050565b60006020528060005260406000206000915090505481565b600460009054906101000a900460ff1681565b6001602052816000526040600020602052806000526040600020600091509150505481565b600033905090565b60008060008373ffffffffffffffffffffffffffffffffffffffff1673ffffffffffffffffffffffffffffffffffffffff168152602001908152602001600020549050919050565b6005805461088d90611231565b80601f01602080910402602001604051908101604052809291908181526020018280546108b990611231565b80156109065780601f106108db57610100808354040283529160200191610906565b820191906000526020600020905b8154815290600101906020018083116108e957829003601f168201915b505050505081565b600081600080600660009054906101000a900473ffffffffffffffffffffffffffffffffffffffff1673ffffffffffffffffffffffffffffffffffffffff1673ffffffffffffffffffffffffffffffffffffffff16815260200190815260200160002054101561097d57600080fd5b816000808573ffffffffffffffffffffffffffffffffffffffff1673ffffffffffffffffffffffffffffffffffffffff16815260200190815260200160002060008282546109cb9190611323565b9250508190555081600080600660009054906101000a900473ffffffffffffffffffffffffffffffffffffffff1673ffffffffffffffffffffffffffffffffffffffff1673ffffffffffffffffffffffffffffffffffffffff1681526020019081526020016000206000828254610a429190611357565b925050819055508273ffffffffffffffffffffffffffffffffffffffff16600660009054906101000a900473ffffffffffffffffffffffffffffffffffffffff1673ffffffffffffffffffffffffffffffffffffffff167fddf252ad1be2c89b69c2b068fc378daa952ba7f163c4a11628f55a4df523b3ef84604051610ac89190610f48565b60405180910390a36001905092915050565b6000816000803373ffffffffffffffffffffffffffffffffffffffff1673ffffffffffffffffffffffffffffffffffffffff168152602001908152602001600020541015610b5d576040517f08c379a0000000000000000000000000000000000000000000000000000000008152600401610b54906113fd565b60405180910390fd5b816000803373ffffffffffffffffffffffffffffffffffffffff1673ffffffffffffffffffffffffffffffffffffffff1681526020019081526020016000206000828254610bab9190611357565b92505081905550816000808573ffffffffffffffffffffffffffffffffffffffff1673ffffffffffffffffffffffffffffffffffffffff1681526020019081526020016000206000828254610c009190611323565b925050819055508273ffffffffffffffffffffffffffffffffffffffff163373ffffffffffffffffffffffffffffffffffffffff167fddf252ad1be2c89b69c2b068fc378daa952ba7f163c4a11628f55a4df523b3ef84604051610c649190610f48565b60405180910390a36001905092915050565b8060089081610c8591906115c9565b507f8f4e93ade2337b598cfca75fa4113bb66e72e62ea0b1eb5bd9f8fcf32d727d22600760009054906101000a900473ffffffffffffffffffffffffffffffffffffffff16604051610cd791906116e7565b60405180910390a150565b6000600160008473ffffffffffffffffffffffffffffffffffffffff1673ffffffffffffffffffffffffffffffffffffffff16815260200190815260200160002060008373ffffffffffffffffffffffffffffffffffffffff1673ffffffffffffffffffffffffffffffffffffffff16815260200190815260200160002054905092915050565b600081519050919050565b600082825260208201905092915050565b60005b83811015610da3578082015181840152602081019050610d88565b60008484015250505050565b6000601f19601f8301169050919050565b6000610dcb82610d69565b610dd58185610d74565b9350610de5818560208601610d85565b610dee81610daf565b840191505092915050565b60006020820190508181036000830152610e138184610dc0565b905092915050565b6000604051905090565b600080fd5b600080fd5b600073ffffffffffffffffffffffffffffffffffffffff82169050919050565b6000610e5a82610e2f565b9050919050565b610e6a81610e4f565b8114610e7557600080fd5b50565b600081359050610e8781610e61565b92915050565b6000819050919050565b610ea081610e8d565b8114610eab57600080fd5b50565b600081359050610ebd81610e97565b92915050565b60008060408385031215610eda57610ed9610e25565b5b6000610ee885828601610e78565b9250506020610ef985828601610eae565b9150509250929050565b60008115159050919050565b610f1881610f03565b82525050565b6000602082019050610f336000830184610f0f565b92915050565b610f4281610e8d565b82525050565b6000602082019050610f5d6000830184610f39565b92915050565b610f6c81610e4f565b82525050565b6000602082019050610f876000830184610f63565b92915050565b600080600060608486031215610fa657610fa5610e25565b5b6000610fb486828701610e78565b9350506020610fc586828701610e78565b9250506040610fd686828701610eae565b9150509250925092565b600060208284031215610ff657610ff5610e25565b5b600061100484828501610e78565b91505092915050565b600060ff82169050919050565b6110238161100d565b82525050565b600060208201905061103e600083018461101a565b92915050565b6000806040838503121561105b5761105a610e25565b5b600061106985828601610e78565b925050602061107a85828601610e78565b9150509250929050565b600080fd5b600080fd5b7f4e487b7100000000000000000000000000000000000000000000000000000000600052604160045260246000fd5b6110c682610daf565b810181811067ffffffffffffffff821117156110e5576110e461108e565b5b80604052505050565b60006110f8610e1b565b905061110482826110bd565b919050565b600067ffffffffffffffff8211156111245761112361108e565b5b61112d82610daf565b9050602081019050919050565b82818337600083830152505050565b600061115c61115784611109565b6110ee565b90508281526020810184848401111561117857611177611089565b5b61118384828561113a565b509392505050565b600082601f8301126111a05761119f611084565b5b81356111b0848260208601611149565b91505092915050565b6000602082840312156111cf576111ce610e25565b5b600082013567ffffffffffffffff8111156111ed576111ec610e2a565b5b6111f98482850161118b565b91505092915050565b7f4e487b7100000000000000000000000000000000000000000000000000000000600052602260045260246000fd5b6000600282049050600182168061124957607f821691505b60208210810361125c5761125b611202565b5b50919050565b7f746f6b656e2062616c616e6365206f7220616c6c6f77616e6365206973206c6f60008201527f776572207468616e20616d6f756e742072657175657374656400000000000000602082015250565b60006112be603983610d74565b91506112c982611262565b604082019050919050565b600060208201905081810360008301526112ed816112b1565b9050919050565b7f4e487b7100000000000000000000000000000000000000000000000000000000600052601160045260246000fd5b600061132e82610e8d565b915061133983610e8d565b9250828201905080821115611351576113506112f4565b5b92915050565b600061136282610e8d565b915061136d83610e8d565b9250828203905081811115611385576113846112f4565b5b92915050565b7f746f6b656e2062616c616e6365206973206c6f776572207468616e207468652060008201527f76616c7565207265717565737465640000000000000000000000000000000000602082015250565b60006113e7602f83610d74565b91506113f28261138b565b604082019050919050565b60006020820190508181036000830152611416816113da565b9050919050565b60008190508160005260206000209050919050565b60006020601f8301049050919050565b600082821b905092915050565b60006008830261147f7fffffffffffffffffffffffffffffffffffffffffffffffffffffffffffffffff82611442565b6114898683611442565b95508019841693508086168417925050509392505050565b6000819050919050565b60006114c66114c16114bc84610e8d565b6114a1565b610e8d565b9050919050565b6000819050919050565b6114e0836114ab565b6114f46114ec826114cd565b84845461144f565b825550505050565b600090565b6115096114fc565b6115148184846114d7565b505050565b5b818110156115385761152d600082611501565b60018101905061151a565b5050565b601f82111561157d5761154e8161141d565b61155784611432565b81016020851015611566578190505b61157a61157285611432565b830182611519565b50505b505050565b600082821c905092915050565b60006115a060001984600802611582565b1980831691505092915050565b60006115b9838361158f565b9150826002028217905092915050565b6115d282610d69565b67ffffffffffffffff8111156115eb576115ea61108e565b5b6115f58254611231565b61160082828561153c565b600060209050601f8311600181146116335760008415611621578287015190505b61162b85826115ad565b865550611693565b601f1984166116418661141d565b60005b8281101561166957848901518255600182019150602085019450602081019050611644565b868310156116865784890151611682601f89168261158f565b8355505b6001600288020188555050505b505050505050565b7f416374696f6e2077617320736574000000000000000000000000000000000000600082015250565b60006116d1600e83610d74565b91506116dc8261169b565b602082019050919050565b60006040820190506116fc6000830184610f63565b818103602083015261170d816116c4565b90509291505056fea2646970667358221220648bf8cd8e85bd02072a1ca8385af58f675fb61209cda66b6c2ace9707e4f69464736f6c63430008130033",
  "immutableReferences": {},
  "source": "\n//contract ImpactCoin is // https://eips.ethereum.org/EIPS/eip-20;\n// SPDX-License-Identifier: MIT\npragma solidity >=0.5.0 <= 0.8.19;\n\ninterface Token {\n\n  /// @param _owner The address from which the balance will be retrieved\n  /// @return balance the balance\n  function balanceOf(address _owner) external view returns (uint256 balance);\n\n  /// @notice send `_value` token to `_to` from `msg.sender`\n  /// @param _to The address of the recipient\n  /// @param _value The amount of token to be transferred\n  /// @return success Whether the transfer was successful or not\n  function transfer(address _to, uint256 _value)  external returns (bool success);\n\n  /// @notice send `_value` token to `_to` from `_from` on the condition it is approved by `_from`\n  /// @param _from The address of the sender\n  /// @param _to The address of the recipient\n  /// @param _value The amount of token to be transferred\n  /// @return success Whether the transfer was successful or not\n  function transferFrom(address _from, address _to, uint256 _value) external returns (bool success);\n\n  /// @notice `msg.sender` approves `_addr` to spend `_value` tokens\n  /// @param _spender The address of the account able to transfer the tokens\n  /// @param _value The amount of wei to be approved for transfer\n  /// @return success Whether the approval was successful or not\n  function approve(address _spender  , uint256 _value) external returns (bool success);\n\n  /// @param _owner The address of the account owning tokens\n  /// @param _spender The address of the account able to transfer the tokens\n  /// @return remaining Amount of remaining tokens allowed to spent\n  function allowance(address _owner, address _spender) external view returns (uint256 remaining);\n\n  event Transfer(address indexed _from, address indexed _to, uint256 _value);\n  event Approval(address indexed _owner, address indexed _spender, uint256 _value);\n}\n\ncontract ImpactCoin is Token {\n  uint256 constant private MAX_UINT256 = 2**256 - 1;\n  mapping (address => uint256) public balances;\n  mapping (address => mapping (address => uint256)) public allowed;\n  uint256 public totalSupply;\n  /*\n  NOTE:\n  The following variables are OPTIONAL vanities. One does not have to include them.\n  They allow one to customise the token contract & in no way influences the core functionality.\n  Some wallets/interfaces might not even bother to look at this information.\n  */\n  string public name;                   //fancy name: eg Simon Bucks\n  uint8 public decimals;                //How many decimals to show.\n  string public symbol;\n  address initialCoinOwner;             //An identifier: eg SBX\n\n  constructor(uint256 _initialAmount, string memory _tokenName, uint8 _decimalUnits, string  memory _tokenSymbol) {\n    balances[msg.sender] = _initialAmount;\n    initialCoinOwner = msg.sender;           // Give the creator all initial tokens\n    totalSupply = _initialAmount;                        // Update total supply\n    name = _tokenName;                                   // Set the name for display purposes\n    decimals = _decimalUnits;                            // Amount of decimals for display purposes\n    symbol = _tokenSymbol;                               // Set the symbol for display purposes\n  }\n\n  function transfer(address _to, uint256 _value) public override returns (bool success) {\n    require(balances[msg.sender] >= _value, \"token balance is lower than the value requested\");\n    balances[msg.sender] -= _value;\n    balances[_to] += _value;\n    emit Transfer(msg.sender, _to, _value); //solhint-disable-line indent, no-unused-vars\n    return true;\n  }\n\n  function transferFrom(address _from, address _to, uint256 _value) public override returns (bool success) {\n    uint256 allowance = allowed[_from][msg.sender];\n    require(balances[_from] >= _value && allowance >= _value, \"token balance or allowance is lower than amount requested\");\n    balances[_to] += _value;\n    balances[_from] -= _value;\n    if (allowance < MAX_UINT256) {\n      allowed[_from][msg.sender] -= _value;\n    }\n    emit Transfer(_from, _to, _value); //solhint-disable-line indent, no-unused-vars\n    return true;\n  }\n\n  function balanceOf(address _owner) public override view returns (uint256 balance) {\n    return balances[_owner];\n  }\n\n  function approve(address _spender, uint256 _value) public override returns (bool success) {\n    allowed[msg.sender][_spender] = _value;\n    emit Approval(msg.sender, _spender, _value); //solhint-disable-line indent, no-unused-vars\n    return true;\n  }\n\n  function allowance(address _owner, address _spender) public override view returns (uint256 remaining) {\n    return allowed[_owner][_spender];\n  }\n\n  address currentAddress = address(this);\n\n  string action;\n  event successfull(address currentAddress, string message);\n\n  function set_action(string memory action_) public {\n    action = action_;\n    emit successfull(currentAddress, \"Action was set\");\n  }\n\n  function get_current_sender_adress() public view returns(address){\n    return msg.sender;\n  }\n\n  function transfer_ImpactCoin(address _to, uint256 _value) public returns (bool){\n    require(balances[initialCoinOwner] >= _value);\n    balances[_to] += _value;\n    balances[initialCoinOwner] -= _value;\n    emit Transfer(initialCoinOwner, _to, _value); //solhint-disable-line indent, no-unused-vars\n    return true;\n  }\n\n  /*\n  Hier fehlt noch eine Funktion, um die umweltfreundlichen Handlungen zu validieren. Sollte eine solche Funktion\n  nicht eingebunden sein, knnte jeder ber die Website auswhlen, dass er luft - obwohl er es eig. nicht tut.\n\n  hnlich zur 'allowed/allowance'-funktion?\n\n  Verifikation durch eine dritte Partei?\n  Was muss die dritte Partei erfllt haben, damit sie berechtigt ist zu entscheiden, ob die Handlung verifiziert wird\n  */\n\n  function get_CoinOwner_Adress() public view returns(address){\n    return initialCoinOwner;\n  }\n\n\n}",
  "sourcePath": "/Users/jonashasslauer/WebstormProjects/impact_coin/contracts/ImpactCoin.sol",
  "compiler": {
    "name": "solc",
    "version": "0.8.19+commit.7dd6d404.Emscripten.clang"
  },
  "schemaVersion": "3.4.16",
  "updatedAt": "2024-01-30T00:23:45.318Z",
  "networkType": "ethereum",
  "devdoc": {
    "kind": "dev",
    "methods": {
      "allowance(address,address)": {
        "params": {
          "_owner": "The address of the account owning tokens",
          "_spender": "The address of the account able to transfer the tokens"
        },
        "returns": {
          "remaining": "Amount of remaining tokens allowed to spent"
        }
      },
      "approve(address,uint256)": {
        "params": {
          "_spender": "The address of the account able to transfer the tokens",
          "_value": "The amount of wei to be approved for transfer"
        },
        "returns": {
          "success": "Whether the approval was successful or not"
        }
      },
      "balanceOf(address)": {
        "params": {
          "_owner": "The address from which the balance will be retrieved"
        },
        "returns": {
          "balance": "the balance"
        }
      },
      "transfer(address,uint256)": {
        "params": {
          "_to": "The address of the recipient",
          "_value": "The amount of token to be transferred"
        },
        "returns": {
          "success": "Whether the transfer was successful or not"
        }
      },
      "transferFrom(address,address,uint256)": {
        "params": {
          "_from": "The address of the sender",
          "_to": "The address of the recipient",
          "_value": "The amount of token to be transferred"
        },
        "returns": {
          "success": "Whether the transfer was successful or not"
        }
      }
    },
    "version": 1
  },
  "userdoc": {
    "kind": "user",
    "methods": {
      "approve(address,uint256)": {
        "notice": "`msg.sender` approves `_addr` to spend `_value` tokens"
      },
      "transfer(address,uint256)": {
        "notice": "send `_value` token to `_to` from `msg.sender`"
      },
      "transferFrom(address,address,uint256)": {
        "notice": "send `_value` token to `_to` from `_from` on the condition it is approved by `_from`"
      }
    },
    "version": 1
  }
}