{
  "contractName": "ImpactCoin",
  "abi": [
    {
      "inputs": [
        {
          "internalType": "uint256",
          "name": "_initialAmount",
          "type": "uint256"
        },
        {
          "internalType": "string",
          "name": "_tokenName",
          "type": "string"
        },
        {
          "internalType": "uint8",
          "name": "_decimalUnits",
          "type": "uint8"
        },
        {
          "internalType": "string",
          "name": "_tokenSymbol",
          "type": "string"
        },
        {
          "internalType": "uint256",
          "name": "_payoutAmount",
          "type": "uint256"
        }
      ],
      "stateMutability": "nonpayable",
      "type": "constructor"
    },
    {
      "anonymous": false,
      "inputs": [
        {
          "indexed": true,
          "internalType": "address",
          "name": "_owner",
          "type": "address"
        },
        {
          "indexed": true,
          "internalType": "address",
          "name": "_spender",
          "type": "address"
        },
        {
          "indexed": false,
          "internalType": "uint256",
          "name": "_value",
          "type": "uint256"
        }
      ],
      "name": "Approval",
      "type": "event"
    },
    {
      "anonymous": false,
      "inputs": [
        {
          "indexed": true,
          "internalType": "address",
          "name": "_from",
          "type": "address"
        },
        {
          "indexed": true,
          "internalType": "address",
          "name": "_to",
          "type": "address"
        },
        {
          "indexed": false,
          "internalType": "uint256",
          "name": "_value",
          "type": "uint256"
        }
      ],
      "name": "Transfer",
      "type": "event"
    },
    {
      "inputs": [
        {
          "internalType": "address",
          "name": "",
          "type": "address"
        },
        {
          "internalType": "address",
          "name": "",
          "type": "address"
        }
      ],
      "name": "allowed",
      "outputs": [
        {
          "internalType": "uint256",
          "name": "",
          "type": "uint256"
        }
      ],
      "stateMutability": "view",
      "type": "function"
    },
    {
      "inputs": [
        {
          "internalType": "address",
          "name": "",
          "type": "address"
        }
      ],
      "name": "balances",
      "outputs": [
        {
          "internalType": "uint256",
          "name": "",
          "type": "uint256"
        }
      ],
      "stateMutability": "view",
      "type": "function"
    },
    {
      "inputs": [],
      "name": "decimals",
      "outputs": [
        {
          "internalType": "uint8",
          "name": "",
          "type": "uint8"
        }
      ],
      "stateMutability": "view",
      "type": "function"
    },
    {
      "inputs": [],
      "name": "name",
      "outputs": [
        {
          "internalType": "string",
          "name": "",
          "type": "string"
        }
      ],
      "stateMutability": "view",
      "type": "function"
    },
    {
      "inputs": [
        {
          "internalType": "address",
          "name": "",
          "type": "address"
        }
      ],
      "name": "payout",
      "outputs": [
        {
          "internalType": "uint256",
          "name": "",
          "type": "uint256"
        }
      ],
      "stateMutability": "view",
      "type": "function"
    },
    {
      "inputs": [],
      "name": "symbol",
      "outputs": [
        {
          "internalType": "string",
          "name": "",
          "type": "string"
        }
      ],
      "stateMutability": "view",
      "type": "function"
    },
    {
      "inputs": [],
      "name": "totalSupply",
      "outputs": [
        {
          "internalType": "uint256",
          "name": "",
          "type": "uint256"
        }
      ],
      "stateMutability": "view",
      "type": "function"
    },
    {
      "inputs": [
        {
          "internalType": "string",
          "name": "action",
          "type": "string"
        }
      ],
      "name": "calculateReward",
      "outputs": [
        {
          "internalType": "uint256",
          "name": "",
          "type": "uint256"
        }
      ],
      "stateMutability": "nonpayable",
      "type": "function"
    },
    {
      "inputs": [
        {
          "internalType": "address",
          "name": "_to",
          "type": "address"
        },
        {
          "internalType": "uint256",
          "name": "_value",
          "type": "uint256"
        }
      ],
      "name": "transferCoins",
      "outputs": [
        {
          "internalType": "bool",
          "name": "success",
          "type": "bool"
        }
      ],
      "stateMutability": "nonpayable",
      "type": "function"
    },
    {
      "inputs": [
        {
          "internalType": "uint256",
          "name": "_value",
          "type": "uint256"
        }
      ],
      "name": "requestCoins",
      "outputs": [
        {
          "internalType": "bool",
          "name": "success",
          "type": "bool"
        }
      ],
      "stateMutability": "nonpayable",
      "type": "function"
    },
    {
      "inputs": [],
      "name": "getPayoutAmount",
      "outputs": [
        {
          "internalType": "uint256",
          "name": "amount",
          "type": "uint256"
        }
      ],
      "stateMutability": "view",
      "type": "function"
    },
    {
      "inputs": [
        {
          "internalType": "address",
          "name": "_from",
          "type": "address"
        },
        {
          "internalType": "address",
          "name": "_to",
          "type": "address"
        },
        {
          "internalType": "uint256",
          "name": "_value",
          "type": "uint256"
        }
      ],
      "name": "transferFrom",
      "outputs": [
        {
          "internalType": "bool",
          "name": "success",
          "type": "bool"
        }
      ],
      "stateMutability": "nonpayable",
      "type": "function"
    },
    {
      "inputs": [
        {
          "internalType": "address",
          "name": "_owner",
          "type": "address"
        }
      ],
      "name": "balanceOf",
      "outputs": [
        {
          "internalType": "uint256",
          "name": "balance",
          "type": "uint256"
        }
      ],
      "stateMutability": "view",
      "type": "function"
    },
    {
      "inputs": [
        {
          "internalType": "address",
          "name": "_spender",
          "type": "address"
        },
        {
          "internalType": "uint256",
          "name": "_value",
          "type": "uint256"
        }
      ],
      "name": "approve",
      "outputs": [
        {
          "internalType": "bool",
          "name": "success",
          "type": "bool"
        }
      ],
      "stateMutability": "nonpayable",
      "type": "function"
    },
    {
      "inputs": [
        {
          "internalType": "address",
          "name": "_owner",
          "type": "address"
        },
        {
          "internalType": "address",
          "name": "_spender",
          "type": "address"
        }
      ],
      "name": "allowance",
      "outputs": [
        {
          "internalType": "uint256",
          "name": "remaining",
          "type": "uint256"
        }
      ],
      "stateMutability": "view",
      "type": "function"
    },
    {
      "inputs": [],
      "name": "get_CoinOwner_Address",
      "outputs": [
        {
          "internalType": "address",
          "name": "coinOwner",
          "type": "address"
        }
      ],
      "stateMutability": "view",
      "type": "function"
    },
    {
      "inputs": [
        {
          "internalType": "address",
          "name": "addr",
          "type": "address"
        }
      ],
      "name": "getBalance",
      "outputs": [
        {
          "internalType": "uint256",
          "name": "",
          "type": "uint256"
        }
      ],
      "stateMutability": "view",
      "type": "function"
    }
  ],
  "bytecode": "0x60806040523480156200001157600080fd5b5060405162001d8238038062001d8283398181016040528101906200003791906200031f565b846000803073ffffffffffffffffffffffffffffffffffffffff1673ffffffffffffffffffffffffffffffffffffffff1681526020019081526020016000208190555030600760006101000a81548173ffffffffffffffffffffffffffffffffffffffff021916908373ffffffffffffffffffffffffffffffffffffffff16021790555080600881905550846003819055508360049081620000da919062000626565b5082600560006101000a81548160ff021916908360ff160217905550816006908162000107919062000626565b5050505050506200070d565b6000604051905090565b600080fd5b600080fd5b6000819050919050565b6200013c8162000127565b81146200014857600080fd5b50565b6000815190506200015c8162000131565b92915050565b600080fd5b600080fd5b6000601f19601f8301169050919050565b7f4e487b7100000000000000000000000000000000000000000000000000000000600052604160045260246000fd5b620001b7826200016c565b810181811067ffffffffffffffff82111715620001d957620001d86200017d565b5b80604052505050565b6000620001ee62000113565b9050620001fc8282620001ac565b919050565b600067ffffffffffffffff8211156200021f576200021e6200017d565b5b6200022a826200016c565b9050602081019050919050565b60005b83811015620002575780820151818401526020810190506200023a565b60008484015250505050565b60006200027a620002748462000201565b620001e2565b90508281526020810184848401111562000299576200029862000167565b5b620002a684828562000237565b509392505050565b600082601f830112620002c657620002c562000162565b5b8151620002d884826020860162000263565b91505092915050565b600060ff82169050919050565b620002f981620002e1565b81146200030557600080fd5b50565b6000815190506200031981620002ee565b92915050565b600080600080600060a086880312156200033e576200033d6200011d565b5b60006200034e888289016200014b565b955050602086015167ffffffffffffffff81111562000372576200037162000122565b5b6200038088828901620002ae565b9450506040620003938882890162000308565b935050606086015167ffffffffffffffff811115620003b757620003b662000122565b5b620003c588828901620002ae565b9250506080620003d8888289016200014b565b9150509295509295909350565b600081519050919050565b7f4e487b7100000000000000000000000000000000000000000000000000000000600052602260045260246000fd5b600060028204905060018216806200043857607f821691505b6020821081036200044e576200044d620003f0565b5b50919050565b60008190508160005260206000209050919050565b60006020601f8301049050919050565b600082821b905092915050565b600060088302620004b87fffffffffffffffffffffffffffffffffffffffffffffffffffffffffffffffff8262000479565b620004c4868362000479565b95508019841693508086168417925050509392505050565b6000819050919050565b60006200050762000501620004fb8462000127565b620004dc565b62000127565b9050919050565b6000819050919050565b6200052383620004e6565b6200053b62000532826200050e565b84845462000486565b825550505050565b600090565b6200055262000543565b6200055f81848462000518565b505050565b5b8181101562000587576200057b60008262000548565b60018101905062000565565b5050565b601f821115620005d657620005a08162000454565b620005ab8462000469565b81016020851015620005bb578190505b620005d3620005ca8562000469565b83018262000564565b50505b505050565b600082821c905092915050565b6000620005fb60001984600802620005db565b1980831691505092915050565b6000620006168383620005e8565b9150826002028217905092915050565b6200063182620003e5565b67ffffffffffffffff8111156200064d576200064c6200017d565b5b6200065982546200041f565b620006668282856200058b565b600060209050601f8311600181146200069e576000841562000689578287015190505b62000695858262000608565b86555062000705565b601f198416620006ae8662000454565b60005b82811015620006d857848901518255600182019150602085019450602081019050620006b1565b86831015620006f85784890151620006f4601f891682620005e8565b8355505b6001600288020188555050505b505050505050565b611665806200071d6000396000f3fe608060405234801561001057600080fd5b506004361061010b5760003560e01c8063313ce567116100a257806387e95fc91161007157806387e95fc91461030857806395d89b4114610326578063dd62ed3e14610344578063f2ac503614610374578063f8b2cb4f146103a45761010b565b8063313ce5671461026c578063465d2ec71461028a5780635c658165146102a857806370a08231146102d85761010b565b806318160ddd116100de57806318160ddd146101be57806323b872dd146101dc57806327e235e31461020c5780632dba5cfa1461023c5761010b565b806306fdde0314610110578063095ea7b31461012e5780630b7e9c441461015e57806316c565af1461018e575b600080fd5b6101186103d4565b6040516101259190610fde565b60405180910390f35b610148600480360381019061014391906110a8565b610462565b6040516101559190611103565b60405180910390f35b6101786004803603810190610173919061111e565b610554565b604051610185919061115a565b60405180910390f35b6101a860048036038101906101a391906112aa565b61056c565b6040516101b5919061115a565b60405180910390f35b6101c6610573565b6040516101d3919061115a565b60405180910390f35b6101f660048036038101906101f191906112f3565b610579565b6040516102039190611103565b60405180910390f35b6102266004803603810190610221919061111e565b61085f565b604051610233919061115a565b60405180910390f35b610256600480360381019061025191906110a8565b610877565b6040516102639190611103565b60405180910390f35b610274610abc565b6040516102819190611362565b60405180910390f35b610292610acf565b60405161029f919061115a565b60405180910390f35b6102c260048036038101906102bd919061137d565b610b16565b6040516102cf919061115a565b60405180910390f35b6102f260048036038101906102ed919061111e565b610b3b565b6040516102ff919061115a565b60405180910390f35b610310610b83565b60405161031d91906113cc565b60405180910390f35b61032e610bad565b60405161033b9190610fde565b60405180910390f35b61035e6004803603810190610359919061137d565b610c3b565b60405161036b919061115a565b60405180910390f35b61038e600480360381019061038991906113e7565b610cc2565b60405161039b9190611103565b60405180910390f35b6103be60048036038101906103b9919061111e565b610f06565b6040516103cb919061115a565b60405180910390f35b600480546103e190611443565b80601f016020809104026020016040519081016040528092919081815260200182805461040d90611443565b801561045a5780601f1061042f5761010080835404028352916020019161045a565b820191906000526020600020905b81548152906001019060200180831161043d57829003601f168201915b505050505081565b600081600260003373ffffffffffffffffffffffffffffffffffffffff1673ffffffffffffffffffffffffffffffffffffffff16815260200190815260200160002060008573ffffffffffffffffffffffffffffffffffffffff1673ffffffffffffffffffffffffffffffffffffffff168152602001908152602001600020819055508273ffffffffffffffffffffffffffffffffffffffff163373ffffffffffffffffffffffffffffffffffffffff167f8c5be1e5ebec7d5bd14f71427d1e84f3dd0314c0f7b2291e5b200ac8c7c3b92584604051610542919061115a565b60405180910390a36001905092915050565b60016020528060005260406000206000915090505481565b6000919050565b60035481565b600080600260008673ffffffffffffffffffffffffffffffffffffffff1673ffffffffffffffffffffffffffffffffffffffff16815260200190815260200160002060003373ffffffffffffffffffffffffffffffffffffffff1673ffffffffffffffffffffffffffffffffffffffff168152602001908152602001600020549050826000808773ffffffffffffffffffffffffffffffffffffffff1673ffffffffffffffffffffffffffffffffffffffff16815260200190815260200160002054101580156106495750828110155b610688576040517f08c379a000000000000000000000000000000000000000000000000000000000815260040161067f906114e6565b60405180910390fd5b826000808673ffffffffffffffffffffffffffffffffffffffff1673ffffffffffffffffffffffffffffffffffffffff16815260200190815260200160002060008282546106d69190611535565b92505081905550826000808773ffffffffffffffffffffffffffffffffffffffff1673ffffffffffffffffffffffffffffffffffffffff168152602001908152602001600020600082825461072b9190611569565b925050819055507fffffffffffffffffffffffffffffffffffffffffffffffffffffffffffffffff8110156107ee5782600260008773ffffffffffffffffffffffffffffffffffffffff1673ffffffffffffffffffffffffffffffffffffffff16815260200190815260200160002060003373ffffffffffffffffffffffffffffffffffffffff1673ffffffffffffffffffffffffffffffffffffffff16815260200190815260200160002060008282546107e69190611569565b925050819055505b8373ffffffffffffffffffffffffffffffffffffffff168573ffffffffffffffffffffffffffffffffffffffff167fddf252ad1be2c89b69c2b068fc378daa952ba7f163c4a11628f55a4df523b3ef8560405161084b919061115a565b60405180910390a360019150509392505050565b60006020528060005260406000206000915090505481565b6000600854600160008573ffffffffffffffffffffffffffffffffffffffff1673ffffffffffffffffffffffffffffffffffffffff168152602001908152602001600020541015610ab157816000803373ffffffffffffffffffffffffffffffffffffffff1673ffffffffffffffffffffffffffffffffffffffff168152602001908152602001600020541015610943576040517f08c379a000000000000000000000000000000000000000000000000000000000815260040161093a9061160f565b60405180910390fd5b816000803373ffffffffffffffffffffffffffffffffffffffff1673ffffffffffffffffffffffffffffffffffffffff16815260200190815260200160002060008282546109919190611569565b92505081905550816000808573ffffffffffffffffffffffffffffffffffffffff1673ffffffffffffffffffffffffffffffffffffffff16815260200190815260200160002060008282546109e69190611535565b925050819055508273ffffffffffffffffffffffffffffffffffffffff163373ffffffffffffffffffffffffffffffffffffffff167fddf252ad1be2c89b69c2b068fc378daa952ba7f163c4a11628f55a4df523b3ef84604051610a4a919061115a565b60405180910390a360018060008573ffffffffffffffffffffffffffffffffffffffff1673ffffffffffffffffffffffffffffffffffffffff1681526020019081526020016000206000828254610aa19190611535565b9250508190555060019050610ab6565b600090505b92915050565b600560009054906101000a900460ff1681565b6000600160003373ffffffffffffffffffffffffffffffffffffffff1673ffffffffffffffffffffffffffffffffffffffff16815260200190815260200160002054905090565b6002602052816000526040600020602052806000526040600020600091509150505481565b60008060008373ffffffffffffffffffffffffffffffffffffffff1673ffffffffffffffffffffffffffffffffffffffff168152602001908152602001600020549050919050565b6000600760009054906101000a900473ffffffffffffffffffffffffffffffffffffffff16905090565b60068054610bba90611443565b80601f0160208091040260200160405190810160405280929190818152602001828054610be690611443565b8015610c335780601f10610c0857610100808354040283529160200191610c33565b820191906000526020600020905b815481529060010190602001808311610c1657829003601f168201915b505050505081565b6000600260008473ffffffffffffffffffffffffffffffffffffffff1673ffffffffffffffffffffffffffffffffffffffff16815260200190815260200160002060008373ffffffffffffffffffffffffffffffffffffffff1673ffffffffffffffffffffffffffffffffffffffff16815260200190815260200160002054905092915050565b6000600854600160003373ffffffffffffffffffffffffffffffffffffffff1673ffffffffffffffffffffffffffffffffffffffff168152602001908152602001600020541015610efc57816000803073ffffffffffffffffffffffffffffffffffffffff1673ffffffffffffffffffffffffffffffffffffffff168152602001908152602001600020541015610d8e576040517f08c379a0000000000000000000000000000000000000000000000000000000008152600401610d859061160f565b60405180910390fd5b816000803073ffffffffffffffffffffffffffffffffffffffff1673ffffffffffffffffffffffffffffffffffffffff1681526020019081526020016000206000828254610ddc9190611569565b92505081905550816000803373ffffffffffffffffffffffffffffffffffffffff1673ffffffffffffffffffffffffffffffffffffffff1681526020019081526020016000206000828254610e319190611535565b9250508190555081600160003373ffffffffffffffffffffffffffffffffffffffff1673ffffffffffffffffffffffffffffffffffffffff1681526020019081526020016000206000828254610e879190611535565b925050819055503373ffffffffffffffffffffffffffffffffffffffff163073ffffffffffffffffffffffffffffffffffffffff167fddf252ad1be2c89b69c2b068fc378daa952ba7f163c4a11628f55a4df523b3ef84604051610eeb919061115a565b60405180910390a360019050610f01565b600090505b919050565b60008060008373ffffffffffffffffffffffffffffffffffffffff1673ffffffffffffffffffffffffffffffffffffffff168152602001908152602001600020549050919050565b600081519050919050565b600082825260208201905092915050565b60005b83811015610f88578082015181840152602081019050610f6d565b60008484015250505050565b6000601f19601f8301169050919050565b6000610fb082610f4e565b610fba8185610f59565b9350610fca818560208601610f6a565b610fd381610f94565b840191505092915050565b60006020820190508181036000830152610ff88184610fa5565b905092915050565b6000604051905090565b600080fd5b600080fd5b600073ffffffffffffffffffffffffffffffffffffffff82169050919050565b600061103f82611014565b9050919050565b61104f81611034565b811461105a57600080fd5b50565b60008135905061106c81611046565b92915050565b6000819050919050565b61108581611072565b811461109057600080fd5b50565b6000813590506110a28161107c565b92915050565b600080604083850312156110bf576110be61100a565b5b60006110cd8582860161105d565b92505060206110de85828601611093565b9150509250929050565b60008115159050919050565b6110fd816110e8565b82525050565b600060208201905061111860008301846110f4565b92915050565b6000602082840312156111345761113361100a565b5b60006111428482850161105d565b91505092915050565b61115481611072565b82525050565b600060208201905061116f600083018461114b565b92915050565b600080fd5b600080fd5b7f4e487b7100000000000000000000000000000000000000000000000000000000600052604160045260246000fd5b6111b782610f94565b810181811067ffffffffffffffff821117156111d6576111d561117f565b5b80604052505050565b60006111e9611000565b90506111f582826111ae565b919050565b600067ffffffffffffffff8211156112155761121461117f565b5b61121e82610f94565b9050602081019050919050565b82818337600083830152505050565b600061124d611248846111fa565b6111df565b9050828152602081018484840111156112695761126861117a565b5b61127484828561122b565b509392505050565b600082601f83011261129157611290611175565b5b81356112a184826020860161123a565b91505092915050565b6000602082840312156112c0576112bf61100a565b5b600082013567ffffffffffffffff8111156112de576112dd61100f565b5b6112ea8482850161127c565b91505092915050565b60008060006060848603121561130c5761130b61100a565b5b600061131a8682870161105d565b935050602061132b8682870161105d565b925050604061133c86828701611093565b9150509250925092565b600060ff82169050919050565b61135c81611346565b82525050565b60006020820190506113776000830184611353565b92915050565b600080604083850312156113945761139361100a565b5b60006113a28582860161105d565b92505060206113b38582860161105d565b9150509250929050565b6113c681611034565b82525050565b60006020820190506113e160008301846113bd565b92915050565b6000602082840312156113fd576113fc61100a565b5b600061140b84828501611093565b91505092915050565b7f4e487b7100000000000000000000000000000000000000000000000000000000600052602260045260246000fd5b6000600282049050600182168061145b57607f821691505b60208210810361146e5761146d611414565b5b50919050565b7f746f6b656e2062616c616e6365206f7220616c6c6f77616e6365206973206c6f60008201527f776572207468616e20616d6f756e742072657175657374656400000000000000602082015250565b60006114d0603983610f59565b91506114db82611474565b604082019050919050565b600060208201905081810360008301526114ff816114c3565b9050919050565b7f4e487b7100000000000000000000000000000000000000000000000000000000600052601160045260246000fd5b600061154082611072565b915061154b83611072565b925082820190508082111561156357611562611506565b5b92915050565b600061157482611072565b915061157f83611072565b925082820390508181111561159757611596611506565b5b92915050565b7f746f6b656e2062616c616e6365206973206c6f776572207468616e207468652060008201527f76616c7565207265717565737465640000000000000000000000000000000000602082015250565b60006115f9602f83610f59565b91506116048261159d565b604082019050919050565b60006020820190508181036000830152611628816115ec565b905091905056fea26469706673582212203dd88ab268ef3fa407de33946a3eb55f07d44e980ac3474a725ee8af7fd4c4cd64736f6c63430008130033",
  "immutableReferences": {},
  "source": "\n//contract ImpactCoin is // https://eips.ethereum.org/EIPS/eip-20;\n// SPDX-License-Identifier: MIT\npragma solidity >=0.5.0 <= 0.8.19;\n\ninterface Token {\n\n  /// @param _owner The address from which the balance will be retrieved\n  /// @return balance the balance\n  function balanceOf(address _owner) external view returns (uint256 balance);\n\n  /// @notice send `_value` token to `_to` from `msg.sender`\n  /// @param _to The address of the recipient\n  /// @param _value The amount of token to be transferred\n  /// @return success Whether the transfer was successful or not\n  function transferCoins(address _to, uint256 _value)  external returns (bool success);\n\n  /// @notice send `_value` token to `_to` from `_from` on the condition it is approved by `_from`\n  /// @param _from The address of the sender\n  /// @param _to The address of the recipient\n  /// @param _value The amount of token to be transferred\n  /// @return success Whether the transfer was successful or not\n  function transferFrom(address _from, address _to, uint256 _value) external returns (bool success);\n\n  /// @notice `msg.sender` approves `_addr` to spend `_value` tokens\n  /// @param _spender The address of the account able to transfer the tokens\n  /// @param _value The amount of wei to be approved for transfer\n  /// @return success Whether the approval was successful or not\n  function approve(address _spender  , uint256 _value) external returns (bool success);\n\n  /// @param _owner The address of the account owning tokens\n  /// @param _spender The address of the account able to transfer the tokens\n  /// @return remaining Amount of remaining tokens allowed to spent\n  function allowance(address _owner, address _spender) external view returns (uint256 remaining);\n\n  event Transfer(address indexed _from, address indexed _to, uint256 _value);\n  event Approval(address indexed _owner, address indexed _spender, uint256 _value);\n}\n\ncontract ImpactCoin is Token {\n  uint256 constant private MAX_UINT256 = 2**256 - 1;\n  mapping (address => uint256) public balances;\n  mapping (address => uint256) public payout;\n  mapping (address => mapping (address => uint256)) public allowed;\n  uint256 public totalSupply;\n\n  string public name;                   //fancy name: eg Simon Bucks\n  uint8 public decimals;                //How many decimals to show.\n  string public symbol;\n  address initialCoinOwner;             //An identifier: eg SBX\n  uint256 max_payout;\n\n  constructor(uint256 _initialAmount, string memory _tokenName, uint8 _decimalUnits, string  memory _tokenSymbol, uint256 _payoutAmount) {\n    balances[address(this)] = _initialAmount;\n    initialCoinOwner = address(this);\n    max_payout = _payoutAmount;\n    totalSupply = _initialAmount;                        // Update total supply\n    name = _tokenName;                                   // Set the name for display purposes\n    decimals = _decimalUnits;                            // Amount of decimals for display purposes\n    symbol = _tokenSymbol;                               // Set the symbol for display purposes\n  }\n\n  /*\n  Berechnung der einzelnen Werte fr Gehen oder Baum pflanzen fehlt noch\n  */\n  function calculateReward(string memory action) public returns (uint256){\n\n  }\n\n  function transferCoins(address _to, uint256 _value) public override returns (bool success) {\n    //transfers only coins, if the receiver got less than <payout_per_Week> coins - in this case 5 times\n    if (payout[_to] < max_payout){\n      require(balances[msg.sender] >= _value, \"token balance is lower than the value requested\");\n      balances[msg.sender] -= _value;\n      balances[_to] += _value;\n      emit Transfer(msg.sender, _to, _value); //solhint-disable-line indent, no-unused-vars\n      payout[_to] += 1;\n      return true;\n    }else return false;\n  }\n\n  function requestCoins(uint _value) public returns (bool success){\n    if (payout[msg.sender] < max_payout){\n    require(balances[address(this)] >= _value, \"token balance is lower than the value requested\");\n    balances[address(this)] -= _value;\n    balances[msg.sender] += _value;\n      payout[msg.sender] += _value;\n    emit Transfer(address(this), msg.sender, _value); //solhint-disable-line indent, no-unused-vars\n      return true;\n    }else return false;\n  }\n\n  function getPayoutAmount() public view returns (uint amount){\n    return payout[msg.sender];\n  }\n\n  function transferFrom(address _from, address _to, uint256 _value) public override returns (bool success) {\n    uint256 allowance = allowed[_from][msg.sender];\n    require(balances[_from] >= _value && allowance >= _value, \"token balance or allowance is lower than amount requested\");\n    balances[_to] += _value;\n    balances[_from] -= _value;\n    if (allowance < MAX_UINT256) {\n      allowed[_from][msg.sender] -= _value;\n    }\n    emit Transfer(_from, _to, _value); //solhint-disable-line indent, no-unused-vars\n    return true;\n  }\n\n  function balanceOf(address _owner) public override view returns (uint256 balance) {\n    return balances[_owner];\n  }\n\n  function approve(address _spender, uint256 _value) public override returns (bool success) {\n    allowed[msg.sender][_spender] = _value;\n    emit Approval(msg.sender, _spender, _value); //solhint-disable-line indent, no-unused-vars\n    return true;\n  }\n\n  function allowance(address _owner, address _spender) public override view returns (uint256 remaining) {\n    return allowed[_owner][_spender];\n  }\n\n  function get_CoinOwner_Address() public view returns(address coinOwner){\n    return initialCoinOwner;\n  }\n\n  function getBalance(address addr) public view returns(uint) {\n    return balances[addr];\n  }\n\n}",
  "sourcePath": "/Users/jonashasslauer/WebstormProjects/impact_coin/contracts/ImpactCoin.sol",
  "compiler": {
    "name": "solc",
    "version": "0.8.19+commit.7dd6d404.Emscripten.clang"
  },
  "schemaVersion": "3.4.16",
  "updatedAt": "2024-02-05T14:27:48.815Z",
  "devdoc": {
    "kind": "dev",
    "methods": {
      "allowance(address,address)": {
        "params": {
          "_owner": "The address of the account owning tokens",
          "_spender": "The address of the account able to transfer the tokens"
        },
        "returns": {
          "remaining": "Amount of remaining tokens allowed to spent"
        }
      },
      "approve(address,uint256)": {
        "params": {
          "_spender": "The address of the account able to transfer the tokens",
          "_value": "The amount of wei to be approved for transfer"
        },
        "returns": {
          "success": "Whether the approval was successful or not"
        }
      },
      "balanceOf(address)": {
        "params": {
          "_owner": "The address from which the balance will be retrieved"
        },
        "returns": {
          "balance": "the balance"
        }
      },
      "transferCoins(address,uint256)": {
        "params": {
          "_to": "The address of the recipient",
          "_value": "The amount of token to be transferred"
        },
        "returns": {
          "success": "Whether the transfer was successful or not"
        }
      },
      "transferFrom(address,address,uint256)": {
        "params": {
          "_from": "The address of the sender",
          "_to": "The address of the recipient",
          "_value": "The amount of token to be transferred"
        },
        "returns": {
          "success": "Whether the transfer was successful or not"
        }
      }
    },
    "version": 1
  },
  "userdoc": {
    "kind": "user",
    "methods": {
      "approve(address,uint256)": {
        "notice": "`msg.sender` approves `_addr` to spend `_value` tokens"
      },
      "transferCoins(address,uint256)": {
        "notice": "send `_value` token to `_to` from `msg.sender`"
      },
      "transferFrom(address,address,uint256)": {
        "notice": "send `_value` token to `_to` from `_from` on the condition it is approved by `_from`"
      }
    },
    "version": 1
  }
}